:020000040800F2
:1000000000400020E90F0008D90E0008DB0E0008B0
:10001000DD0E0008DF0E0008E10E00080000000001
:10002000000000000000000000000000E30E0008D7
:10003000E50E000800000000E70E00081D0F000894
:10004000391000083910000839100008391000086C
:10005000391000083910000839100008391000085C
:10006000391000083910000839100008E90E00089E
:10007000391000083910000839100008391000083C
:10008000391000083910000839100008000000007D
:10009000000000000000000000000000391000080F
:1000A000391000083910000839100008391000080C
:1000B000391000080000000000000000391000089E
:1000C000391000083910000839100008000000003D
:1000D00039100008391000083910000839100008DC
:1000E000391000083910000800000000000000006E
:1000F0000000000000000000000000000000000000
:10010000000000000000000000000000391000089E
:10011000000000000000000039100008000000008E
:1001200000000000000000000000000000000000CF
:1001300000000000000000000000000000000000BF
:10014000391000083910000800000000000000000D
:10015000000000000000000000000000000000009F
:1001600039100008391000080000000000000000ED
:10017000000000000000000000000000000000007F
:08018000000000003910000826
:1001900010B5054C237833B9044B13B10448AFF3C1
:1001A00000800123237010BD8000002000000000AB
:1001B0007448000808B5034B1BB103490348AFF36B
:1001C000008008BD00000000840000207448000882
:1001D00001F0FF01102A2BDB10F0070F08D010F8F8
:1001E000013B013A8B422DD010F0070F42B3F6D1FC
:1001F000F0B441EA012141EA014122F007047FF015
:1002000000070023F0E80256083C85EA010586EA6B
:10021000010685FA47F5A3FA87F586FA47F6A5FAA7
:1002200087F68EB9EED1F0BC01F0FF0102F00702B3
:1002300032B110F8013B013A83EA010313B1F8D15E
:100240000020704701387047002D06BF354603383F
:10025000073815F0010F07D1013015F4807F02BF78
:10026000013015F4C03F0130F0BC0138704700BFC9
:1002700070B54FF0FF0C4CF4E06C1CEA11541DBF3C
:100280001CEA135594EA0C0F95EA0C0F00F0DEF807
:100290002C4481EA030621EA4C5123EA4C5350EAEC
:1002A000013518BF52EA033541F4801143F480133D
:1002B00038D0A0FB02CE4FF00005E1FB02E506F0CE
:1002C0000042E0FB03E54FF00006E1FB03569CF023
:1002D000000F18BF4EF0010EA4F1FF04B6F5007F29
:1002E00064F5407404D25FEA4E0E6D4146EB06069B
:1002F00042EAC62141EA55514FEAC52040EA5E5024
:100300004FEACE2EB4F1FD0C88BFBCF5E06F1ED8CD
:10031000BEF1004F08BF5FEA500E50F1000041EB04
:10032000045170BD06F0004646EA010140EA0200B1
:1003300081EA0301B4EB5C04C2BFD4EB0C0541EAD3
:10034000045170BD41F480114FF0000E013C00F3E8
:10035000AB8014F1360FDEBF002001F0004170BD0C
:10036000C4F10004203C35DA0C341BDC04F1140425
:10037000C4F1200500FA05F320FA04F001FA05F2B1
:1003800040EA020001F0004221F0004110EBD3707E
:1003900021FA04F642EB06015EEA430E08BF20EAAA
:1003A000D37070BDC4F10C04C4F1200500FA04F34D
:1003B00020FA05F001FA04F240EA020001F00041DF
:1003C00010EBD37041F100015EEA430E08BF20EA52
:1003D000D37070BDC4F1200500FA05F24EEA020E9A
:1003E00020FA04F301FA05F243EA020321FA04F0C9
:1003F00001F0004121FA04F220EA020000EBD37080
:100400005EEA430E08BF20EAD37070BD94F0000F7F
:100410000FD101F00046400041EB010111F4801FB3
:1004200008BF013CF7D041EA060195F0000F18BF64
:10043000704703F00046520043EB030313F4801FA0
:1004400008BF013DF7D043EA0603704794EA0C0F5A
:100450000CEA135518BF95EA0C0F0CD050EA410670
:1004600018BF52EA4306D1D181EA030101F00041ED
:100470004FF0000070BD50EA410606BF1046194615
:1004800052EA430619D094EA0C0F02D150EA013621
:1004900013D195EA0C0F05D152EA03361CBF104662
:1004A00019460AD181EA030101F0004141F0FE4101
:1004B00041F470014FF0000070BD41F0FE4141F485
:1004C000780170BD81F0004102E000BF83F000437D
:1004D00030B54FEA41044FEA430594EA050F08BFDF
:1004E00090EA020F1FBF54EA000C55EA020C7FEAA3
:1004F000645C7FEA655C00F0E2804FEA5454D4EB20
:100500005555B8BF6D420CDD2C4480EA020281EAE9
:10051000030382EA000083EA010180EA020281EA21
:100520000303362D88BF30BD11F0004F4FEA013173
:100530004FF4801C4CEA113102D0404261EB410182
:1005400013F0004F4FEA03334CEA133302D0524208
:1005500063EB430394EA050F00F0A780A4F10104C4
:10056000D5F1200E0DDB02FA0EFC22FA05F28018FE
:1005700041F1000103FA0EF2801843FA05F35941E4
:100580000EE0A5F120050EF1200E012A03FA0EFC63
:1005900028BF4CF0020C43FA05F3C01851EBE3718D
:1005A00001F0004507D54FF0000EDCF1000C7EEBAA
:1005B00000006EEB0101B1F5801F1BD3B1F5001FE8
:1005C0000CD349085FEA30004FEA3C0C04F1010407
:1005D0004FEA445212F5800F80F09A80BCF1004F30
:1005E00008BF5FEA500C50F1000041EB045141EAB2
:1005F000050130BD5FEA4C0C404141EB0101013C7B
:1006000028BFB1F5801FE9D291F0000F04BF014669
:100610000020B1FA81F308BF2033A3F10B03B3F13B
:1006200020020CDA0C3208DD02F1140CC2F10C02CB
:1006300001FA0CF021FA02F10CE002F11402D8BF29
:10064000C2F1200C01FA02F120FA0CFCDCBF41EAF5
:100650000C019040E41AA2BF01EB0451294330BDC4
:100660006FEA04041F3C1CDA0C340EDC04F11404A1
:10067000C4F1200220FA04F001FA02F340EA030078
:1006800021FA04F345EA030130BDC4F10C04C4F1BE
:10069000200220FA02F001FA04F340EA030029469E
:1006A00030BD21FA04F0294630BD94F0000F83F4E8
:1006B000801306BF81F480110134013D4EE77FEACB
:1006C000645C18BF7FEA655C29D094EA050F08BF17
:1006D00090EA020F05D054EA000C04BF19461046F8
:1006E00030BD91EA030F1EBF0021002030BD5FEA3C
:1006F000545C05D14000494128BF41F0004130BD64
:1007000014F580043CBF01F5801130BD01F00045B7
:1007100045F0FE4141F470014FF0000030BD7FEA2A
:10072000645C1ABF194610467FEA655C1CBF0B4625
:10073000024650EA013406BF52EA033591EA030F3C
:1007400041F4002130BD00BF90F0000F04BF002134
:10075000704730B54FF4806404F132044FF0000567
:100760004FF0000150E700BF90F0000F04BF0021E0
:10077000704730B54FF4806404F1320410F0004546
:1007800048BF40424FF000013EE700BF42004FEA41
:10079000E2014FEA31014FEA02701FBF12F07F43BE
:1007A00093F07F4F81F06051704732F07F4208BF75
:1007B000704793F07F4F04BF41F40021704730B57C
:1007C0004FF4607401F0004521F000411CE700BFC8
:1007D00050EA010208BF704730B54FF000050AE04B
:1007E00050EA010208BF704730B511F0004502D54C
:1007F000404261EB41014FF4806404F132045FEA4E
:10080000915C3FF4D8AE4FF003025FEADC0C18BFF6
:1008100003325FEADC0C18BF033202EBDC02C2F1E8
:10082000200300FA03FC20FA02F001FA03FE40EA7A
:100830000E0021FA02F11444BDE600BF4A0011D2B5
:1008400012F5001211D20DD56FF47873B3EB62522A
:100850000ED44FEAC12343F0004343EA505323FA36
:1008600002F070474FF00000704750EA013002D1AB
:100870004FF0FF3070474FF000007047124A1349A5
:1008800013688B420CBF1249114B10B51160114C0B
:10089000114A136023683BB910484FF4806201F09D
:1008A00001FD0123236010BD0C4C20680A464FF463
:1008B000806300F14001A06B01F030FF2268936873
:1008C00043F004039360EEE7042100200829002090
:1008D00008210020FC2000200021002060320020A0
:1008E00030B59DB02022002107A803F01FFA142282
:1008F000002101A803F01AFA0021302210A803F009
:1009000015FA01221023CDE90A2302244FF46013C3
:1009100006A80F9306940D9402F046F80F230025C5
:10092000CDE9013421464FF4806301A8CDE903539A
:10093000059502F0B9FA8123109310A84FF4D073F3
:100940001295169302F088FB1DB030BD0000000028
:100950002DE9F04FB54DB64EDFF834A3DFF834B3D0
:10096000DFF80C9391B001F0FFFAFFF7B9FF142202
:1009700000210AA803F0DAF96B6943F400336B61D4
:100980006B6903F400330693069B6B6943F4802381
:100990006B616B6903F480230022079320214FF0E1
:1009A000904000240127079B01F0F8FF20230AA9AB
:1009B0004FF09040CDE90A37CDE90C4401F030FF0B
:1009C0006B693B436B616B699A4D3B402246214604
:1009D00005930B20059B01F021FE0B2001F050FE3A
:1009E000182221460AA803F0A1F94FF0A043C5E957
:1009F000003404236B6128464FF48073C5E90A7400
:100A0000EF6185F830702B83C5E9024485F82040FA
:100A10002C616C6301F062FB0B230AA92846CDE927
:100A20000A37CDE90C44CDE90E4401F09BFC02F0FD
:100A300029FF814A814B34610C253046C6E90023E9
:100A4000C6E90554C6E90244C6E90744746202F0E7
:100A5000EAFE7B487B494FF4E133C0E90013C0E96B
:100A60000445C0E90244C0E90644C0E9084402F074
:100A7000DAFE754803F07AF8744B00933A46744BEB
:100A80007448214603F00AF8734B744A1A60744B99
:100A9000CAF80030734B74481C604FF48061CBF887
:100AA0000040254601F026FA2746FFF7E7FEA0465C
:100AB000039472B6DBF800300893CBF8008062B67E
:100AC000089B002BF5D00A2C00F00C810134A4B255
:100AD0000A2C08D1002D40F003812A4620214FF036
:100AE000904001F05BFF67B1604B1A68002AFCD1AF
:100AF00001221A60DAF800104D484FF4006202F04B
:100B0000B1FBDAF800205A4902F500600D4632F8D0
:100B1000023B9BB207EE903AF8EE677A9042E1EC26
:100B2000017AF4D10023534A4F48494601F0C6F9EF
:100B300050484FF40072494600F080FA039B23B1FD
:100B40004D482422002103F0F1F800232B6009AA6C
:100B50000AAB4FF40071484600F0FAFA474BDFED5C
:100B6000487A9DED097A1988464ADFED4B6AB4EE62
:100B7000E77AF1EE10FA01F1010018805ABF0A98E5
:100B800022F8110022F811801A883E48202A08BF56
:100B9000A3F8008000231A4630F8021B39B107EE93
:100BA000901AF8EE677A013376EEA76A9BB20132AB
:100BB00092B2202AF0D1002B00F0968007EE903AF6
:100BC000F8EEE77A86EEA77ADFED2F7A27EE277A1E
:100BD000DFED2E7A27EE277ABCEEC77A17EE103AB1
:100BE0009DB25FB1214B1A68002AFCD101221A6024
:100BF0000F484FF41672494602F034FB33688DF803
:100C00002880DB699B067FF554AF01231A4608480C
:100C10000AA902F044FD9DF82830612B5CD0683BA6
:100C2000DAB20B2A3FF645AF38E000BF00100240B1
:100C300094310020603200200038014040420F0013
:100C40000C310020004400408C480008D7480008C0
:100C5000A5480008B1480008042100200829002008
:100C600008210020FC200020E02000200831002086
:100C7000E0100020E0000020E41000209C00002094
:100C80000050C3479E00002000820B470000803ABE
:100C900000210020F8200020000000000B2B3FF670
:100CA00008AF01A252F823F0EF0C0008B30A0008C5
:100CB000B30A0008F90C0008F50C0008170D00082D
:100CC000B30A0008B30A0008B30A0008B30A000810
:100CD000B30A0008DD0C00080127EAE60027E8E671
:100CE0000122FBE60024FEE61FED157A6CE70123E6
:100CF0000393DEE60023FBE72846FFF735FD0DA34F
:100D0000D3E90023FFF7B4FAFFF798FD81B2084852
:100D100002F0C4FECDE62846FFF726FD02A3D3E984
:100D20000023EFE7AFF30080CC4065FCFB8CC23FB3
:100D3000E0480008ADF9F19716F5CC3F07B54FF63E
:100D4000FF730190012201A9034802F057FC0198AA
:100D500003B05DF804FB00BF9431002008B5FFF735
:100D60008DFD024B01221A6008BD00BFF820002053
:100D7000704700000A4B9A6942F0010282B09A6102
:100D80009A6902F001020092009ADA6942F08052F8
:100D9000DA61DB6903F080530193019B02B0704775
:100DA0000010024030B5054689B01422002103A886
:100DB00002F0BCFF2B68B3F1A04F37D103F17043B1
:100DC00003F504331A4C5A691A4842F080525A61AA
:100DD0005A6902F080520192019A5A6942F48022C3
:100DE0005A615B6903F4802302930122029B03A9E9
:100DF0000323CDE9032301F013FD80204FF480721B
:100E00000D490023C4E903024FF48062C4E90013D2
:100E1000C4E90523A36020464FF40053E36101F0C9
:100E200051FC08B1FFF7A4FFAC63656209B030BDA7
:100E30001C320020000400480800024010B51422B3
:100E40008AB0044600210DEB020002F06FFF236818
:100E50001E4A934222D11E4B9A6942F480429A6103
:100E60009A6902F480420192019A5A6942F400326E
:100E70005A615B6903F400330293029B4FF4C06331
:100E800005930223032106930723CDE908134FF0AE
:100E9000904005A901F0C4FC0AB010BD0D4A934270
:100EA000FAD10B4BDA6942F40032DA61DA6902F402
:100EB00000320392039A5A6942F400325A615B6924
:100EC00003F400330493049B0C23D9E7003801405A
:100ED0000010024000440040FEE7FEE7FEE7FEE7A8
:100EE000FEE7704770477047014801F052BC00BFF1
:100EF0001C320020074A13781BB11378013BDBB288
:100F00001370054A13781BB11378013BDBB21370E1
:100F1000704700BFB1320020B032002008B5084A47
:100F200013780133DBB213701378092B03D9002334
:100F30001370FFF7DFFFBDE8084001F027B800BFDE
:100F4000B232002070B50D4614460E46731B9C420B
:100F500001DC204670BDAFF3008006F8010BF5E719
:100F600070B50D4614460E46731B9C4201DC2046AC
:100F700070BD16F8010BFFF7E1FEF5E74FF0FF300B
:100F800070474FF400534B600020704701207047BA
:100F9000002070470B4A116810B5034609B90A4989
:100FA0001160106809490A4C0344091B8B4206D999
:100FB00002F00AFF0C2303604FF0FF3010BD1360F6
:100FC000FCE700BFB43200202034002000400020A5
:100FD00000040000034AD2F8883043F47003C2F8DA
:100FE0008830704700ED00E0DFF834D00D480E493E
:100FF0000E4A002302E0D458C4500433C4188C4273
:10100000F9D30B4A0B4C002301E013600432A242D7
:10101000FBD3FFF7DFFF02F0DDFEFFF799FCFEE7F1
:10102000004000200000002080000020F46C000838
:10103000800000201C340020FEE700002DE9F0476E
:101040004FEA920905460E46174600F1200401F1C9
:101050001008CA46BAF1000F0CD105EB491406EB93
:10106000091607F00307083406EB8707B74257D184
:10107000BDE8F08714ED070A54ED087A20EE000A67
:10108000A7EEA70AB5EEC00AF1EE10FA3CDB03F0BA
:10109000CFFB08ED040A14ED050A54ED067A20EEA4
:1010A000000AA7EEA70AB5EEC00AF1EE10FA2EDB91
:1010B00003F0BEFB08ED030A14ED030A54ED047AB5
:1010C00020EE000AA7EEA70AB5EEC00AF1EE10FA6C
:1010D00020DB03F0ADFB08ED020A14ED010A54ED2C
:1010E000027A20EE000AA7EEA70AB5EEC00AF1EEDA
:1010F00010FA12DB03F09CFB08ED010A0AF1FF3A3B
:10110000203408F11008A5E79FED100AC1E79FED14
:101110000F0ACFE79FED0D0ADDE79FED0C0AEBE725
:1011200014ED010A54ED027A20EE000AA7EEA70A98
:10113000B5EEC00AF1EE10FA05DB03F079FBA6EC80
:10114000010A083492E79FED010AF8E70000000069
:10115000F0B5D0ED007A4C1E0646002514364FEA55
:10116000940C24F0030E2F4675450BD100EB0C10A8
:1011700004F0030404300C1BA14234D1C2ED007A08
:101180001F60F0BD16ED047AF4EEC77AF1EE10FAA6
:1011900048BFF0EE477A16ED037AF4EEC77A48BFFF
:1011A0006F1CF1EE10FA48BFF0EE477A16ED027AA6
:1011B000F4EEC77A48BFAF1CF1EE10FA48BFF0EE6C
:1011C000477A16ED017AF4EEC77A48BFEF1CF1EECC
:1011D00010FA05F1040554BFB0EE677A2F461036B9
:1011E000F0EE477AC0E7B0EC017AF4EEC77AF1EEA0
:1011F00010FA48BF274648BFF0EE477A0134BBE7F4
:101200002DE9F0410023884602F1020C984501D8EF
:10121000BDE8F08132F813503CF81340AD08A40843
:1012200050F825E050F8241040F82510AF00A60033
:1012300040F824E03D1D341D4759065946510233FC
:101240000751E3E72DE9F04780462DED028BB8F812
:101250000070D8F8042001EB870908467908FF08D8
:10126000064600EB810509EB81044B4602EB0717AC
:101270009446BC4506F1100605F1100504F1100472
:1012800003F110030FD18CB22146022300F0FEFAC5
:10129000BDEC028BD8F80420214648460223BDE865
:1012A000F04700F0F3BA13ED040A16ED047A53ED9B
:1012B000030A56ED033A53ED011A14ED044A54EDB6
:1012C000034A13ED021A55ED032A15ED023A55EDC6
:1012D000016A54ED025A14ED016A56ED027A15EDD9
:1012E000042A16ED015A37EE008A37EE407A06EDF1
:1012F000048A33EEA08A73EEE03A06ED038A37EEF5
:10130000818A0CF1100C06ED028A35EE218A35EE49
:10131000615A72EE041A06ED018A45ED041A72EE66
:10132000A41A74EEE24A45ED031A73EE251A75EE1F
:10133000C35A45ED021A76EE861A36EE666A45ED18
:10134000011A1CED033A5CED046A63EE832A34EE65
:10135000424AE7EE262A23EE477A43ED042AA3EE1B
:10136000A67A77EEC17A03ED037A24EE267A66EE4A
:10137000E46AA4EE837AE4EE036A04ED037A44EDB2
:10138000046A1CED027A5CED016A65EE264AE7EE1E
:10139000874A66EEE77A43ED024AE5EE077A43EDC7
:1013A000017A65EE877A27EE467AE6EE267AA5EE92
:1013B000A67A44ED017A04ED027A5AE72DE9F04F5E
:1013C0008346D1ED007ABBF80030D1ED015ADBF84D
:1013D00004205B0801EBC30595ED007A37EE876AC0
:1013E00077EEC77A95ED017A01EB830675EE876A91
:1013F00075EEC75A96ED007AD6ED013A05EB8304F7
:10140000D4ED004A94ED014A37EE065A2DED048BD7
:1014100035EE245A8BB081ED005A96ED015A94EDC9
:10142000013A039236EE855A5A0835EE035A09926C
:10143000039A81ED015A33EEA75A083235EE445A29
:101440000692039A86ED005A36EE476A35EEC75A81
:10145000103276EEE36A77EEE37A37EE257A07927A
:10146000039A35EE245A36EE646A76EEC46A77EE55
:10147000847A37EE647A1832A4F1040886ED015AB2
:1014800085ED006AC5ED016AC4ED007A84ED017A4C
:1014900008925A0808EB83030093DDE906A3023A99
:1014A000520804920293089B0193049B084601F1A1
:1014B000100EA6F104092F1F06F1100105F1100C02
:1014C00004F110020593009B1CED027A5CED013AD9
:1014D0005EED024A1EED016A51ED025A11ED012A3C
:1014E00012ED024A52ED012A083B0093029B103391
:1014F0000293019B74EEC77A36EE635A74EE874A04
:1015000036EE236A183335EE653A72EE276A34EE0A
:10151000E57A35EE855A76EE423A77EEC27A75EE86
:10152000A45A0193059B76EEE26A33EE043A37EE55
:10153000447A73EEE23A77EEA27A35EE445A75EECB
:10154000845AA9F10809083FA8F108080AF1080A15
:101550000EF1080E08310CF1080C0832002B73D183
:10156000049B069F0499DA0002F1080300EB030ACA
:10157000CAED005A06EB030EDEED015A05EB030837
:10158000234436EE256AD3ED015A36EE256A174418
:101590008AED016AB946D9ED014AD9ED005A079F93
:1015A000049A24EE836A07EB021CA5EEA66A089A49
:1015B00066EEE46A8EED006AE5EE836A182707FBA3
:1015C0000127039ACEED016ADCED015A9CED006A19
:1015D00065EEA36AE6EE076A27EE657AC8ED006A53
:1015E000A6EE237A88ED017A97ED016AD7ED006ABD
:1015F000BDF8247026EE057A3946A6EEA77A67EE86
:10160000C67A83ED007AE6EE857AC3ED017A04238B
:1016100000F03CF9DBF8042039463046042300F0A2
:1016200035F9DBF8042039462846042300F02EF96A
:10163000DBF804200423394620460BB0BDEC048BB4
:10164000BDE8F04F00F022B94EED045A51ED035AB7
:10165000009B36EE256A52ED035A36EE256A0EEDF2
:10166000036A98ED016A99ED012AD9ED024A93EDDA
:10167000028A93ED014AD7ED018A72EE065A32EEE4
:10168000462A98ED026A34EE869A74EEC64A97EDC1
:10169000026A76EE482A39EE461A36EE096A75EE87
:1016A000E81A36EE086A74EEE80A89ED026A97EDE8
:1016B000016A75EE865A93ED016A029B75EE865AB1
:1016C00070EE840AC9ED015A5AED015A1AED026A08
:1016D00071EEC41A34EE684A32EE820A34EE644A7D
:1016E00065EE834A31EE481AE6EE264A66EEE56A72
:1016F00041ED044AE6EE036A72EEC22A41ED036A46
:1017000060EE866A26EE406AE0EE256AA0EEA56AE3
:10171000C7ED016A87ED026A53ED036A13ED046AAF
:10172000019B66EEA35AE6EE075A27EE667A4CED69
:10173000045AA6EE237A0CED037A21EE267A66EEA1
:10174000E16AA1EEC67AE1EE466A88ED017AC8ED5B
:10175000026A13ED067A53ED056A009B26EE856A50
:10176000A7EE276A67EEE67A02ED046AE7EE057AED
:1017700042ED037A64EE077A27EE627AE2EEA67A09
:10178000A4EE267AC3ED017A83ED027A059B013B34
:1017900098E6012A2DE9F041058806460C461746D1
:1017A00098463ED0B5F5807F49D026D8402D31D01F
:1017B0001CD8102D1CD0202D41D0B8F1000F04D022
:1017C000B268B1892046FFF71BFD012F0CD107EE4F
:1017D000905AF8EE677AF7EE006A86EEA77A002351
:1017E000AB4204F108042FD3BDE8F081802DE4D191
:1017F00021463046FFF726FDDFE7B5F5006F1ED026
:1018000005D8B5F5007F05D0B5F5806FEFE7B5F5E4
:10181000805FD2D1726801232946204600F036F855
:10182000CBE70A1D0023AB4202F10802BAD252ED07
:10183000027AF1EE677A42ED027A0133F3E721464C
:101840003046FFF7BBFDB8E754ED027A67EE877AC2
:10185000013344ED027A54ED017A67EEC77A44ED24
:10186000017ABDE70023B1F5007F0180436008D114
:10187000054A918981819168526881604260184669
:1018800070474FF0FF307047B06C00082DE9F04F03
:101890002DED108B8DB0DFEDB17A02910B92039399
:1018A0000191019BD908CA0008926FF0170202FB50
:1018B00001F900EB411C28224A430CEB090707926F
:1018C00007EB41160A01069206EB090530224A434E
:1018D00005EB4114059204EB0902009238224A43B9
:1018E0000492009ADB004FEA411B02EB411800F121
:1018F000040E4FF0000ADCED006A1EED016AD7ED20
:10190000005A009AD8ED003A92ED003A36EE267A67
:1019100036EE666AD6ED006A35EEA65A35EEE64A30
:10192000D4ED005AD5ED006A76EEA54A76EEE56A6A
:1019300073EE235A77EE641A35EE652A37EE247A71
:1019400075EE255A33EE633A37EE255A37EE657A4F
:101950000EED015A8CED007A9EED005A9CED017A55
:10196000D6ED014AD4ED013A98ED011A75EE075A09
:1019700035EE475A97ED017A77EE242A37EE647AEE
:10198000D5ED014A74EEA30A74EEE34AD2ED013AB2
:1019900033EE810A73EEC13A35EEE01A75EEA05AC5
:1019A00072EEC00A72EE802A35EEA20A75EEE25A95
:1019B0008EED000ACCED015A71EEA05A71EEE01ADC
:1019C000C5ED005A71EE425A32EE012AC4ED001AFA
:1019D000C5ED015A74EE035A84ED012A77EE632AAD
:1019E00034EE432A37EE237AB0EE664AA5EEE74A94
:1019F0009C441D44E5EEA76A1C449E44B0EE453A63
:101A0000F0EE455AB0EE645AA7EE275AF0EE463A89
:101A1000A2EE276AA2EEE73AE2EEA75AF0EE642AB7
:101A2000E7EE672AE2EE673A36EE057A36EE456A69
:101A300087ED007A33EEA27A88ED006A73EEE23A1F
:101A400086ED007A35EEE67AC2ED003A76EEA56ACA
:101A500087ED017A33EE447A34EE034AC8ED016A29
:101A600086ED017A82ED014A019A9244009A1A4465
:101A70000092029A52451F441E4498443FF63BAFE1
:101A8000072940F274810BEB00020992089A024484
:101A90000892079A02440792069A02440692059A0F
:101AA00002440592A0EB09020A92049A02440492AD
:101AB00001240022039D2A440B9D05EBC20595EDF0
:101AC000002A05EBC20595ED000A05EBC20595ED70
:101AD000005A05EBC205D5ED008A05EBC20595ED70
:101AE000004A05EBC20595ED001A302605EBC2054C
:101AF00006FB125695ED003AD5ED012A099DD6ED6B
:101B0000011A05EBC409089D05EBC408079D05EB08
:101B1000C40E069D06EBC20696ED018A05EBC40CC9
:101B200006EBC206059DD6ED014A06EBC20696ED10
:101B3000019A05EBC40706EBC2060A9DD6ED013AF1
:101B400006EBC206D6ED010A05EBC406049D05EBC3
:101B5000C40500EBC40A0095A34601E0F304353F39
:101B600099ED006ADEED005A9AED007AD8ED009A00
:101B7000009DD6ED00BAD5ED00AA9CED00AA77EE47
:101B8000066A37EE467A39EEA56A79EEE59AD7ED20
:101B9000005A3AEE25BA3AEE65AA7BEEAA5A7BEED7
:101BA000EABA76EE65DA76EECBAA36EE256A76EEFE
:101BB0008B6A76EE865A76EEC66ACAED005A99EDC1
:101BC000016ADAED015AD5ED01EA9CED01BA96ED14
:101BD00001DA35EE86EA35EEC6CA98ED016ADEED29
:101BE000015A76EE65CA76EE25FAD7ED015A3BEE3C
:101BF000256A3BEE65BA7DEE2E5A3EEE46FA3DEE84
:101C00006EDA3EEE06EA7FEEE5EA7FEEA55A3AEEA0
:101C1000AE6A7AEEEEAA7EEE25EA3EEE65EACAEDFF
:101C200001EA69EE0E5A7FEE6DEAE8EEA65A9A4492
:101C30007DEE8FDAC9ED005A66EEC95A68EE2E6A5B
:101C4000E8EE8E5AE0EE066AC9ED015A26EE486AC1
:101C5000CCED006A60EEAD6AA0EE2E6A9944E1EE2A
:101C60002A6A8CED016AC7ED006A6AEEE06A79EED5
:101C7000EB5AE1EE2D6A9C4479EEAB9AC7ED016A0E
:101C8000F0EE47BA7CEECD6A3CEE8D6AE5EEE7BA3F
:101C90001F44A5EEA77AF0EE4CCAF0EE4C5AE6EEE1
:101CA000A75AE6EEE7CAF0EE4BAAF0EE4B6AE6EE74
:101CB00067AAE6EE276AB0EE4ADAA9EEA7AA37EEDF
:101CC000266AA9EEE7DA37EE667A7BEEEA9A7BEED1
:101CD000AA6A75EECABA3AEE25AA21EEABBA7CEE34
:101CE000CDAAA2EE06BA26EE616A88ED00BAA2EE8F
:101CF0002B6A7DEE2C5A88ED016A22EE8A6A98449E
:101D0000A3EE076A85ED006A27EE626A23EEAA7ADF
:101D1000A3EE0A6AA4EE267A85ED016A66EEE36A0E
:101D20008EED007A24EEA57AE4EE2A6AA5EE297AF1
:101D3000CEED016A86ED007A29EEE47A9E44A5EEA6
:101D4000257A86ED017A019DAB44009D1D440095E6
:101D5000029D5D451E443FF603AF0134A1427FF46E
:101D6000A9AE039B0191DB009BB2039399E50DB0F3
:101D7000BDEC108BBDE8F08FD1ED017AD1ED005AAA
:101D8000038877EEA77AB0EE006AB0EE677AA5EE28
:101D9000867A10B5D5EE867A4469F6EE006A27EEAB
:101DA000267A67EEA67A013B04F1100001F11004D7
:101DB00001EBC30182ED007AC2ED017A08391032DD
:101DC00091ED034A91ED027A54ED023A54ED017A15
:101DD00050ED025A50ED014A37EE635A34EE276A4D
:101DE00037EE237A77EEC47AA5EE857A013B002B95
:101DF000E4EE857A00F1080002F10802A4EE867A8A
:101E000004F10804A1F10801E5EEC67A27EE267A6E
:101E100067EEA67A02ED047A42ED037AD0DC10BDBB
:101E2000D1ED007A91ED016A038837EE867A77EE7C
:101E3000C67AF6EE006A10B527EE267A446982ED7E
:101E4000007A67EEA67A013BC2ED017A04F1080040
:101E5000083201F1080401EBC301002B02F1080272
:101E600000F1080004F10804A1F1080100DC10BD34
:101E700091ED034A91ED027A54ED023A54ED017A64
:101E800050ED025A50ED014A33EEC75A34EE276A3C
:101E900037EE237A77EEC47AA5EEC57A013BE4EEFD
:101EA000857AA4EEC67AE5EEC67A27EE267A67EE44
:101EB000A67A02ED027A42ED017ACEE72DE9F041F1
:101EC00005460F4616461C464BB1FFF7A9FF2246B2
:101ED000314628460123BDE8F041FFF75ABC2246AF
:101EE0000123FFF756FC324639462846BDE8F0414B
:101EF000FFF742BFB1F5806F38B504460D4609D1F2
:101F000040B14FF40071FFF7ADFC10B9034B2582CF
:101F1000636138BD4FF0FF30FBE700BF3049000878
:101F200038B50E4B1A784FF47A73B3FBF2F30C4AC0
:101F300005461068B0FBF3F000F0B0FB044658B95A
:101F40000F2D09D8024629464FF0FF3000F066FBFE
:101F5000044B20461D6038BD0120FCE70400002032
:101F60000000002008000020074A08B5136843F06D
:101F700010031360032000F03FFB0F20FFF7D0FF9A
:101F8000FEF7F8FE002008BD00200240034A044B83
:101F900011681B780B441360704700BFB8320020F3
:101FA00004000020014B1868704700BFB8320020C1
:101FB0007047704738B503689A6802F00302012A37
:101FC000044601D0002038BD1A68D107FAD59A68B6
:101FD00002F00D02012A15D19A6842F002029A60BD
:101FE00003221A60FFF7DEFF054623689B68DB07C4
:101FF000E8D5FFF7D7FF401B0228F6D923689B6876
:10200000DA07F2D5236C43F010032364636C43F0CA
:10201000010363640120D6E7406A036C43F0400388
:102020000364436C43F004034364FFF7C2BF406A98
:10203000FFF7BEBF436A1A6C12F0500F18D11A6C2A
:1020400042F400721A641A68D26812F4406F0CD11C
:102050005A7E52B91A6C22F480721A641A6CD20435
:102060005EBF1A6C42F001021A641846FEF776BE93
:102070009B6B1B6B1847000038B503689A6802F029
:102080000302012A044604D11A68D10701D50020B1
:1020900038BD9968104A114209D0236C43F01003EF
:1020A0002364636C43F0010363640120F0E79A68E2
:1020B00042F001029A60FFF775FF054623681B682E
:1020C000DB07E4D4FFF76EFF401B0228F6D9236834
:1020D0001B68DA07F2D4E0E73F00008037B5002341
:1020E00001930446002800F0D280026CD50600F16E
:1020F000BB80036C002B00F08180002023689A686D
:10210000D20002D59B689B000AD5236C23F01203F2
:1021100043F010032364636C43F001036364012004
:10212000236CDD0600F1AD80002840F0AA80226813
:102130009368590700F1A580236C23F4817343F061
:1021400002032364936803F00303012B02D1136895
:10215000DB0706D44F4965688B6823F440332B4373
:102160008B60D4E902130B43616B657E013918BFA4
:10217000012143EA453343EA013394F82010012951
:1021800007D1002D72D1616A013943EA414141F41E
:102190008033A16A01291EBFE56A29430B43916878
:1021A00011F00C0F0CD1D16821F4804121F0020113
:1021B000D16094F83010257E490041EA85310B4307
:1021C000D5683549294019432369D160012B05BFE2
:1021D000116BE369136B03F1FF3306BF21F00F01AD
:1021E0000B4323F00F03136300236364236C23F07A
:1021F000030343F00103236403B030BDC0E912338D
:10220000436480F83C30FEF7CDFD23689B68D8001E
:102210003FF573AF2046FFF7CDFE226CD1063FF5A8
:102220006DAF00287FF46AAF236C226823F48853D3
:1022300023F0020343F002032364936823F0405326
:102240009360936843F080539360144B144A1B6867
:10225000B3FBF2F30A2253430193019B002B3FF49B
:102260004CAF019B013BF7E7184659E7216C21F081
:10227000220141F020012164616C41F0010161649F
:1022800087E7236C23F0120343F01003236401203B
:10229000B2E700BF0003005007C0F0FF00000020BD
:1022A00040420F0003682DE9F0419D6815F00405D8
:1022B00004460F4690464DD190F83C30012B49D052
:1022C000012380F83C30FFF7D7FE064600283ED1B8
:1022D000256C216825F4706525F0010545F48075AD
:1022E0002564236C23F480132364CB689B0141BFD6
:1022F000206C20F4405040F480502064236CA06B8C
:1023000013F480531CBF636C23F006036364002343
:1023100084F83C30104B8362104BC362104B036354
:102320001C230B604B6843F010034B60CB6843F0F9
:102330000103CB603A464346403100F0EFF9226892
:10234000936843F0040393603046BDE8F08184F85D
:102350003C50F9E70226F7E7352000082F20000857
:1023600019200008F7B50023019390F83C30012BA9
:10237000054600F03781012380F83C3003689A68F5
:10238000540700F1298148680A680624042800FBE4
:1023900004F42AD8186B1F26A64020EA060002FA89
:1023A00004F420431863986810F00C0F52D1092AE6
:1023B000886802EB42044FF007063BD99F691E3C38
:1023C000A64027EA0606A04030439861D8684E69C7
:1023D000C0F3C10040008640086901389406032814
:1023E00061D8DFE800F02F454E5709280AD8586B0E
:1023F0001E3C1F26A64020EA060002FA04F42043F1
:102400005863D0E70E284FF01F0009D89E6B3C3C64
:10241000A04026EA000002FA04F420439863C2E7D1
:10242000DE6B5A3CA04026EA000002FA04F4204386
:10243000D863B8E75F69A64027EA0606A0403043A4
:102440005861C3E71F6E684838402043304340F06E
:1024500000401866986800F00300012847D118680A
:10246000C00744D50020002385F83C3003B0F0BD00
:102470005F6E5D4838402043304340F0004058666E
:10248000E8E79F6E584838402043304340F0004012
:102490009866DFE7DF6E544838402043304340F011
:1024A0000040D866D6E7186E00F0F840A04202BFA0
:1024B000186E20F000401866586E00F0F840A042F8
:1024C00002BF586E20F000405866986E00F0F84049
:1024D000A04202BF986E20F000409866D86E00F0CF
:1024E000F840A042B6D1D86E20F00040D9E7CC68C1
:1024F0000120012C00FA02F02CD0D3F8B01021EA10
:102500000001C3F8B010102A46D13849896811F487
:10251000000FA7D1996801F00301012902D11968C0
:10252000C90759D4102A46D1B3F1A04F9AD12F4AE6
:10253000936843F4000393602D4B2E4A1B68B3FB52
:10254000F2F30A2253430193019B002B8AD0019B93
:10255000013BF8E7D3F8B040092A40EA0400C3F889
:10256000B0008C680CD902EB420198691B39072630
:102570008E4020EA060004FA01F101439961C2E7A6
:10258000501C596900EB40000722824021EA0202F8
:10259000844022435A6165E7112A04D113498968AE
:1025A00011F0807FB5E7122A7FF45CAF0F4989688C
:1025B00011F4800FADE7112A09D1B3F1A04F7FF4D8
:1025C00051AF0A4A936843F0807393604AE7074A21
:1025D000936843F48003F8E72B6C43F020032B64EB
:1025E000012040E7022041E700F0FF830003005094
:1025F0000000002040420F000749CA6822F4E06250
:102600000302120403F4E063120C134343F0BF63AC
:1026100043F40033CB60704700ED00E0164B30B55B
:10262000DC68C4F30224C4F10703251D042B28BF72
:102630000423062D4FF0FF358CBF033C002405FA20
:1026400003F321EA0303A54022EA0502A340002880
:1026500043EA0203ACBF00F16040084A4FEA0313AB
:10266000B8BF00F00F00DBB2AABF00F56140135401
:1026700080F8003330BD00BF00ED00E014ED00E055
:10268000002807DB4109044A00F01F0001238340B2
:1026900042F82130704700BF00E100E00138B0F19E
:1026A000807F0BD24FF0E023054A5861F02182F879
:1026B00023100020072298611A617047012070479B
:1026C00000ED00E010B5034608B3D3E9012422432E
:1026D000DC68016822431C69086822435C69224364
:1026E0009C692243DC696FF30D10224302430A60A8
:1026F000084A0A441421B2FBF1F292001A64064A15
:10270000DA6300204FF4807298631A8410BD0120B0
:10271000FCE700BFF8FFFDBF00000240F0B590F8F5
:102720002040012C33D090F821500124A54280F89C
:1027300020404FF0000428D184630226046880F80A
:102740002160266826F001062660D0E90F67BD40AB
:10275000756063604368102BC36A0BBFA260A16001
:10276000E160E2604BB1236843F00E03236023680D
:1027700043F0010323600020F0BD236843F00A0307
:102780002360236823F00403F0E780F82040022050
:10279000F2E7C16B026C036870B40E681D68042414
:1027A000944034420ED015F0040F0BD01A689206F4
:1027B0005EBF1A6822F004021A60C36A4C6063B3F9
:1027C00070BC184702249440344212D015F0020F16
:1027D0000FD01A68950606D41A6822F00A021A6009
:1027E000012380F8213000234C6080F82030836A78
:1027F000E5E70824944034420FD02C070DD51C681F
:1028000024F00E041C60012303FA02F24A60836381
:102810004FF480730384036BD1E770BC70470000F2
:102820002DE9F74FDFF87091594C00230A6832FA0E
:1028300003F502D103B0BDE8F08F012505FA03F8D6
:1028400018EA020200F09C804E68032706F0030598
:102850004FEA430E07FA0EFC6F1E012F6FEA0C0CB5
:1028600034D8876807EA0C0ACF6807FA0EF747EAF8
:102870000A078760476827EA0808C6F300179F40E1
:1028800047EA08074760C76807EA0C088F6807FA35
:102890000EF747EA0807022DC76019D14FEAD3089F
:1028A00000EB880803F0070AD8F820704FEA8A0A7C
:1028B0004FF00F0B0BFA0AFB27EA0B0B0F6907FA15
:1028C0000AF747EA0B07C8F8207001E0032DDAD1B8
:1028D000076805FA0EF507EA0C073D4316F4403F7A
:1028E00005604DD0D9F8185045F00105C9F81850C9
:1028F000D9F8185023F0030707F1804705F00105C8
:1029000007F58037019503F0030C019DBD684FEA80
:102910008C0C4FF00F0E0EFA0CFEB0F1904F25EA22
:102920000E0E2FD01B4DA8422ED005F58065A84273
:102930002CD005F58065A84214BF0525032505FAAE
:102940000CF545EA0E05BD60A568D74316F4801F57
:102950000CBF3D401543A560E56816F4001F0CBF91
:102960003D401543E560656816F4003F0CBF3D40EF
:10297000154365602568F60354BF3D401543256047
:10298000013353E70025DAE70125D8E70225D6E72A
:102990000004014000040048001002400AB18161B7
:1029A00070478162704700002DE9F3470546002813
:1029B00033D00368DA0711D42B689B0700F18180BC
:1029C0002B681C0700F1EB802B68580700F1308161
:1029D000EB69002B40F0B581002047E0B04C636804
:1029E00003F00C03042B07D0636803F00C03082BDF
:1029F00015D16368DF0312D54FF4003393FAA3F2C5
:102A0000216893FAA3F30122B3FA83F302FA03F3E2
:102A10000B42D1D06B68002BCED1012026E06A6832
:102A2000B2F5803F25D1236843F480332360E36A05
:102A3000A96823F00F030B43E36252B3FFF7B2FA26
:102A40004FF4003706464FF0010897FAA7F32268C3
:102A500097FAA7F3B3FA83F308FA03F31342ABD15F
:102A6000FFF7A0FA801B6428EFD9032002B0BDE86D
:102A7000F087236832B923F480332360236823F47A
:102A80008023D3E7B2F5A02FF5D143F48023236050
:102A9000C9E7FFF787FA4FF4003706464FF0010801
:102AA00097FAA7F3226897FAA7F3B3FA83F308FA21
:102AB00003F3134280D0FFF775FA801B6428EFD927
:102AC000D3E7774C636813F00C0F07D0636803F00B
:102AD0000C03082B1FD16368DE031CD4022393FA76
:102AE000A3F2216893FAA3F30122B3FA83F302FA63
:102AF00003F30B4202D02B6993428ED12168F82256
:102B000092FAA2F26B69B2FA82F2934021F0F802D3
:102B10001343236054E72A690126FAB196FAA6F313
:102B2000B3FA83F303F1845303F584139B004FF04E
:102B300002081E60FFF736FA074698FAA8F32268E3
:102B400098FAA8F3B3FA83F306FA03F31342D5D144
:102B5000FFF728FAC01B0228EFD986E796FAA6F3FA
:102B6000B3FA83F303F1845303F584139B004FF00E
:102B700002081A60FFF716FA074698FAA8F32268C7
:102B800098FAA8F3B3FA83F306FA03F313423FF477
:102B900017AFFFF707FAC01B0228EED965E7AA694D
:102BA0003F4E404901240AB394FAA4F3B3FA83F3E5
:102BB0000B449B0002271C60FFF7F4F9804697FA4C
:102BC000A7F397FAA7F397FAA7F3726A97FAA7F30E
:102BD000B3FA83F304FA03F313427FF4F5AEFFF77D
:102BE000E1F9A0EB08000228E9D93EE794FAA4F342
:102BF000B3FA83F30B449B0002271A60FFF7D2F964
:102C0000804697FAA7F397FAA7F397FAA7F3726AA1
:102C100097FAA7F3B3FA83F304FA03F313423FF4EA
:102C2000D3AEFFF7BFF9A0EB08000228E9D91CE7F3
:102C30001B4CE369D90031D4E36943F08053E3616D
:102C4000E36903F080530193019B0126164F3B6813
:102C5000DA052BD5EB68012B39D1236A43F0010348
:102C60002362FFF79FF9022780464FF0010941F2E6
:102C7000883A97FAA7F397FAA7F3226A97FAA7F385
:102C8000B3FA83F309FA03F3134253D0002E3FF44F
:102C90009FAEE36923F08053E36199E60026D5E710
:102CA0000010024020819010007000403B6843F407
:102CB00080733B60FFF776F980463B68DB05C9D43B
:102CC000FFF770F9A0EB08006428F6D9CDE61BBB2E
:102CD000236A23F001032362236A23F0040323629F
:102CE000FFF760F9022780464FF0010941F2883A68
:102CF00097FAA7F397FAA7F3226A97FAA7F3B3FA1A
:102D000083F309FA03F31342C0D0FFF74BF9A0EBAA
:102D100008005045ECD9A8E6052B236A03D143F0FF
:102D20000403236299E723F001032362236A23F05B
:102D3000040395E7FFF736F9A0EB0800504598D952
:102D400093E6464C626802F00C02082A74D0022B0B
:102D50004FF080734DD193FAA3F3B3FA83F303F1E9
:102D6000845303F584139B0000221A60FFF71AF9BD
:102D70004FF000780746012698FAA8F3226898FADF
:102D8000A8F3B3FA83F306FA03F313422BD1D5E980
:102D9000081362680B4322F47412134363604FF00C
:102DA000807393FAA3F3B3FA83F303F1845303F527
:102DB00084139B0001271E60FFF7F4F84FF00076A4
:102DC000054696FAA6F3226896FAA6F3B3FA83F3B9
:102DD00007FA03F313427FF4FFADFFF7E3F8401B5C
:102DE0000228EED941E6FFF7DDF8C01B0228C3D95F
:102DF0003BE693FAA3F3B3FA83F303F1845303F5A9
:102E000084139B0000221A60FFF7CCF84FF0007685
:102E10000546012796FAA6F3226896FAA6F3B3FAB6
:102E200083F307FA03F313423FF4D6ADFFF7BAF882
:102E3000401B0228EED918E6012B3FF4EEAD606886
:102E40002B6A00F480329A427FF4E7AD6B6A00F49B
:102E50007010C01A18BF012008E600BF0010024021
:102E60000C4B5A6802F00C01082911D1DB6A0A48A0
:102E7000C2F38341D20344BF03F00F03074A405C0F
:102E800049BFD25C064B074BB3FBF2F35843704784
:102E90000448704700100240D06C0008C06C000865
:102EA00000093D0000127A002DE9F0410D4604466C
:102EB00010B90120BDE8F0814A4A136803F0070306
:102EC0008B422ED32268910736D4D2073CD4454A90
:102ED000136803F00703AB4270D82268424D12F02A
:102EE000040F77D1130706D56B68226923F460536A
:102EF00043EAC2036B60FFF7B3FF6B68F02292FAFC
:102F0000A2F2B2FA82F203F0F003D340374AD35C64
:102F1000D840374B1860374B1868FFF701F800208E
:102F2000C8E7136823F007030B431360136803F02B
:102F300007038B42BDD1C5E72B49A0684B6823F03E
:102F4000F00303434B60C0E76268274E012A24D197
:102F50004FF4003393FAA3F1316893FAA3F3B3FA71
:102F600083F302FA03F30B42A3D0736823F0030345
:102F700013437360FFF716F841F288380746736809
:102F8000626803F00C03B3EB820FA0D0FFF70AF8DE
:102F9000C01B4045F3D903208CE7022A0CBF4FF039
:102FA0000073022393FAA3F1306893FAA3F301218B
:102FB000B3FA83F301FA03F30342D5E7136823F06E
:102FC00007032B431360136803F00703AB427FF43E
:102FD00070AF82E76B68E16823F4E0630B436B60DA
:102FE00080E700BF00200240001002402049000896
:102FF0000000002008000020084B4FF4E0625B68EE
:1030000092FAA2F2B2FA82F203F4E063D340044AE5
:10301000D35C044A1068D840704700BF00100240DB
:103020001849000800000020084B4FF460525B680C
:1030300092FAA2F2B2FA82F203F46053D340044A45
:10304000D35C044A1068D840704700BF00100240AB
:10305000184900080000002003682DE9F347DD034C
:10306000044621D5684DEB69D80073D4EB6943F071
:103070008053EB61EB6903F080530193019B0126C0
:10308000624F3B68D90567D52B6A626813F44073B9
:1030900076D12B6A626823F4407313432B621EB10E
:1030A000EB6923F08053EB612368D80706D55649B6
:1030B000A0680A6B22F0030202430A63990606D550
:1030C0005149E0680A6B22F0100202430A635A0673
:1030D00006D54D4920690A6B22F0200202430A639B
:1030E0001F0406D5484960690A6B22F0400202437A
:1030F0000A639E0506D54449E0694A6822F4000245
:1031000002434A601D0606D53F49A069CA6A22F4F7
:10311000F8720243CA62D80406D53B49206A0A6B9A
:1031200022F4807202430A63590306D53649606A65
:103130000A6B22F4806202430A631A0306D53249FD
:10314000A06A0A6B22F4006202430A63DB0252D4D3
:10315000002012E0002693E73B6843F480733B6055
:10316000FEF720FF80463B68DA058DD4FEF71AFF94
:10317000A0EB08006428F6D9032002B0BDE8F08770
:1031800002F440729A4284D0296A4FF4803321F4C9
:10319000407093FAA3F2DFF878C0B2FA82F2624488
:1031A00092000127176093FAA3F3B3FA83F3634401
:1031B0009B0000221A60CB0728627FF56AAFFEF7FA
:1031C000F1FE4FF00208814641F2883A98FAA8F3DE
:1031D00098FAA8F32A6A98FAA8F3B3FA83F307FADD
:1031E00003F313427FF455AFFEF7DCFEA0EB0900BA
:1031F0005045EBD9C0E7044AE16A136B23F400534E
:103200000B431363A4E700BF0010024000700040AE
:1032100000819010026852E8003F23F4907342E866
:10322000003102680029F5D102F1080353E8003F9C
:1032300023F0010302F1080C4CE800310029F3D11E
:10324000036E012B07D152E8003F23F0100342E840
:1032500000310029F7D12023C0F880300023036615
:1032600083667047F8B504461346E56F202D30D1CC
:10327000E1B1DAB1206FA4F85220A4F85020002662
:103280002122C4F88460E164E267226880B1124FB1
:103290008762124FC762124F2832C0E90C76FFF7DF
:1032A0003DFA28B11023C4F88430E5670120F8BD49
:1032B000236840221A62226802F1080353E8003FA3
:1032C00043F0800302F1080141E800300028F3D107
:1032D000EDE70220EBE700BFE73200082D330008DE
:1032E00039330008704708B50346406A9B69202BB4
:1032F00018D00023A0F85230026802F1080353E806
:10330000003F23F08003083242E8003102680029C0
:10331000F2D152E8003F43F0400342E80031002977
:10332000F7D108BDFFF7DEFFFBE7704708B5406A3D
:10333000FFF7FBFF08BD7047406A0368C26FD0F813
:10334000801010B59C6824060ED5212A0CD10022CD
:10335000A0F8522053E8002F22F0C00243E80024D6
:10336000002CF7D12022C2679B685B0606D5222974
:1033700004D10023A0F85A30FFF74CFFD0F8843076
:1033800043F01003C0F88430FFF7D5FF10BD0000F4
:1033900038B50446C0692169A26823680A43616997
:1033A0001D680A434149024329400A431A605A688A
:1033B000E168256A22F440520A435A609968A2697A
:1033C00021F430612A430A439A60394A934214D166
:1033D000384B1B6B03F00303013B022B5AD8364AD0
:1033E000D35CB0F5004F2ED1082B51D8DFE803F0A5
:1033F000550F1550125050501600304A934249D084
:1034000002F580629B1A18BF01231B01E9E7FFF751
:103410000BFE44E0FFF724FD41E0294862685308B1
:1034200003EB4003B3FBF2F34FF6EF72A3F110018D
:1034300091422DD823F00F02216892B2C3F34203C8
:103440001343CB602DE0082B22D8DFE803F01418DB
:1034500005211B2121211E001948626800EB52033F
:10346000B3FBF2F34FF6EF72A3F1100191420FD8C4
:103470002268D36015E0FFF7BFFD90B1EDE7FFF7DD
:10348000D3FDFAE7FFF7ECFCF7E74FF40040E4E781
:10349000012007E0B0F5004FEDD1FFF7ADFD0028AA
:1034A000BCD100200023C4E91A3338BDF369FFEF13
:1034B0000038014000100240E06C00080044004069
:1034C00000127A00436A1A0710B506D50168446BEA
:1034D0004A6822F4004222434A60DC0706D50168AC
:1034E000846A4A6822F4003222434A60990706D56A
:1034F0000168C46A4A6822F4803222434A605A074B
:1035000006D50168046B4A6822F4802222434A608F
:10351000DC0606D50168846B8A6822F48052224357
:103520008A60990606D50168C46B8A6822F4005245
:1035300022438A605A060FD50168046C4A6822F457
:1035400080122243B4F5801F4A6005D14A68446C5A
:1035500022F4C00222434A601B0606D50268816C31
:10356000536823F400230B43536010BD2DE9F84347
:10357000DDF8209004460D46174698462268D36928
:1035800035EA03030CBF01230023BB4201D0002016
:1035900022E0B9F1FF3FF2D0FEF704FDA0EB0800F6
:1035A000484529D8B9F1000F26D021680B685A0781
:1035B000E4D5802DE2D0402DE0D0CE6916F008068B
:1035C0000CD0082520460D62FFF724FE0023C4F826
:1035D000845084F878300120BDE8F883CB691B055E
:1035E000CCD54FF400630B622046FFF713FE202377
:1035F000C4F8843084F878600320EDE72DE9F743C0
:103600009846C36F202B04460E46174643D1002927
:1036100043D0002A41D021230025C0F88450C3673D
:10362000FEF7C0FCA368A4F85070B3F5805F814634
:10363000A4F8527003D123690BB935461E46B4F87D
:103640005220CDF8008092B24B463AB94021204634
:10365000FFF78CFF202340B9E36708E000228021B8
:103660002046FFF783FF28B12023E367032003B040
:10367000BDE8F08322685EB935F8023BC3F3080366
:103680001385B4F85220013A92B2A4F85220D6E73A
:1036900016F8013BF4E70220E9E70120E7E72DE90E
:1036A000F7439846D0F88030202B04460F46164644
:1036B0005CD100295CD0002A5AD022230025C0F812
:1036C0008450C0F880300566FEF76CFCA368A4F84F
:1036D0005860B3F5805F8146A4F85A600DD1236924
:1036E000DBB1FF221646A4F85C20B4F85A0080B281
:1036F000E0B92023C4F8803025E033B92569002DD6
:10370000EFD07F2216461D46EDE7B3F1805F0AD168
:103710002369002BF5D03F22E4E740F2FF123D463B
:1037200016461F46DFE72A462E46DCE7CDF8008026
:103730004B46002220212046FFF718FF30B12023FE
:10374000C4F88030032003B0BDE8F08323689B8C6D
:10375000334047B925F8023BB4F85A30013B9BB2DD
:10376000A4F85A30C1E707F8013BF5E70220EAE781
:103770000120E8E773B504460026C0F88460FEF730
:1037800011FC23681B681A0705461BD56FF07E43A2
:103790000093324603464FF400112046FFF7E6FE41
:1037A00080B1226852E8003F23F0800342E80031F4
:1037B0000029F6D12023E3670320002384F8783022
:1037C00002B070BD23681B685B0724D56FF07E4391
:1037D000009300222B464FF480012046FFF7C6FEDF
:1037E000C8B1226852E8003F23F4907342E80031E8
:1037F00022680029F5D102F1080353E8003F23F0C5
:10380000010302F1080040E800310029F3D1202330
:10381000C4F88030D0E720230020E367C4F880306C
:1038200020666066C9E710B5044640B3C36F1BB994
:1038300080F87830FDF702FB22682423E3671368E1
:1038400023F001031360636A13B12046FFF73AFEC9
:103850002046FFF79DFD012811D023685A6822F405
:1038600090425A609A6822F02A029A601A6842F0DE
:10387000010220461A60BDE81040FFF77BBF01201F
:1038800010BD000008B50349034800F041F8034BA0
:10389000187008BDBC3200200C000020C03200208F
:1038A000024B01221A701878704700BF20000020D8
:1038B000002070470120704700207047024B012212
:1038C0001A701878704700BF2000002030B50F4BE9
:1038D0005C7A012C17D85D7AEDB200245C555D7AD4
:1038E00003EB85056860587A184402725A7A501CB6
:1038F000C0B258723A2330324B702F230A708B704B
:10390000CC70204630BD0120FCE700BFC43200204F
:103910000022FFF7DBBF0000002310B50446C0E91A
:103920000033C0E90433836081814366C2818361CF
:10393000194608225C3000F0F9F90D4B63620D4B1B
:10394000A3620D4BE3620D4B23630D4B24629C423B
:1039500006D003F16802944202D0D0339C4205D1D4
:1039600004F15800BDE8104000F058BA10BD00BF87
:103970007D3B00089F3B0008D73B0008FB3B00084D
:10398000D0320020024A0349034800F069B800BF62
:1039900024000020B94600083400002041680C4B88
:1039A000994210B5044601D000F086FEA168094B8B
:1039B000994202D0204600F07FFEE168064B994212
:1039C00004D02046BDE8104000F076BE10BD00BF18
:1039D000D032002038330020A033002010B50B4B2C
:1039E0000B4C0C4A1A60204600220421FFF794FF7A
:1039F00004F1680001220921FFF78EFF04F1D000D5
:103A00000222BDE810401221FFF786BF08340020D3
:103A1000D032002085390008014800F000BA00BF0C
:103A200011340020014800F0FBB900BF1134002020
:103A300010B50446FFF7F0FF236A1BB1BDE8104044
:103A4000FFF7F0BF044B2362044B1B68002BF5D13A
:103A5000FFF7C4FFF2E700BF9D39000808340020DB
:103A60002DE9F8430746884614460026D4E9019517
:103A7000B9F1010905D52468002CF7D13046BDE81D
:103A8000F883AB89012B07D9B5F90E30013303D088
:103A900029463846C04706436835E9E70FB407B5FD
:103AA000064904AB086853F8042B8168019300F0C1
:103AB000DBFA03B05DF804EB04B07047300000207F
:103AC000036A70B5846805460E460BB9FFF7B0FF70
:103AD000636EDB0705D4A389980502D4A06D00F0BE
:103AE0009EF9A389190702D52369002B35D12146F8
:103AF000284600F0C5F880B34FF0FF35636EDA0753
:103B000005D4A3899B0502D4A06D00F089F928464D
:103B100070BD002B04DAA2699A4217DC0A2915D07D
:103B200023685A1C22601970A36816F8011F013B14
:103B3000A3600029EDD1002B11DA22460A21284684
:103B400000F05FF80130D7D00A25D7E72246284693
:103B500000F057F80130E7D1CEE7013EE4E72368F3
:103B60005A1C22600A221A70EEE70000024B01463E
:103B70001868FFF7A5BF00BF3000002010B50C4645
:103B8000B1F90E1000F0FCF80028ABBF636DA389FB
:103B90001B1823F48053ACBF6365A38110BD2DE9CE
:103BA000F0411F468B89DB0505460C46164605D5B8
:103BB000B1F90E100223002200F0D0F8A389B4F965
:103BC0000E1023F48053A38132463B462846BDE8BD
:103BD000F04100F0E7B810B50C46B1F90E1000F056
:103BE000BDF8431CA38915BF606523F4805343F4DB
:103BF0008053A38118BFA38110BDB1F90E1000F04E
:103C00009DB8F8B50E461446054618B1036A0BB9BF
:103C1000FFF70EFFA369A360A3891A0701D52369E3
:103C200043B92146284600F02BF818B14FF0FF3772
:103C30003846F8BD23682269981A6369F6B2834250
:103C4000374605DC2146284600F036FD0028EDD138
:103C5000A368013BA36023685A1C22601E7062693E
:103C6000431C9A4204D0A389DB07E1D50A2EDFD199
:103C70002146284600F020FD0028D9D0D6E70000D4
:103C800038B5294B054618680C4618B1036A0BB9BC
:103C9000FFF7CEFEB4F90C30190722D4DA0607D4A8
:103CA00009222A6043F04003A3814FF0FF3033E044
:103CB000580712D5616B41B104F14403994202D017
:103CC000284600F0AFF800236363A38923F02403A0
:103CD000A3810023636023692360A38943F0080361
:103CE000A38123694BB9A38903F42073B3F5007F43
:103CF00003D02146284600F02DFDB4F90C3013F016
:103D000001020AD00022A26062695242A2612269C5
:103D100042B913F08000C5D138BD990758BF626918
:103D2000A260F4E70020F7E73000002002440346D9
:103D3000934200D1704703F8011BF9E738B5064DEF
:103D40000023044608462B60FDF718F9431C02D1F6
:103D50002B6803B1236038BD0C34002038B5074D03
:103D600004460846114600222A601A46FDF710F95B
:103D7000431C02D12B6803B1236038BD0C340020F2
:103D800038B5074D04460846114600222A601A46F7
:103D9000FDF7D8F8431C02D12B6803B1236038BD6E
:103DA0000C34002038B5074D044608461146002261
:103DB0002A601A46FDF7D4F8431C02D12B6803B1E0
:103DC000236038BD0C340020014B1868704700BFD9
:103DD0003000002070B50D4D0D4C641BA410002662
:103DE000A64209D10B4D0C4C00F044FD641BA410FD
:103DF0000026A64205D170BD55F8043B9847013610
:103E0000EEE755F8043B98470136F2E7EC6C000802
:103E1000EC6C0008EC6C0008F06C00087047704710
:103E20007047000038B50546002941D051F8043CE0
:103E30000C1F002BB8BFE41800F0E0F81D4A13680F
:103E400033B9636014602846BDE8384000F0DCB840
:103E5000A34208D9206821188B4201BF19685B680A
:103E600009182160EDE71A465B680BB1A342FAD945
:103E700011685018A0420BD12068014450188342A9
:103E80001160E0D118685B68536008441060DAE79D
:103E900002D90C232B60D6E7206821188B4204BF7F
:103EA00019685B68636004BF091821605460CAE741
:103EB00038BD00BF1834002070B50F4E0C46316875
:103EC000054611B900F0A4FC30602146284600F0F8
:103ED0009FFC431C03D14FF0FF34204670BDC41C2F
:103EE00024F00304A042F8D0211A284600F090FCE8
:103EF0000130F2D1EFE700BF143400202DE9F84380
:103F0000CD1C25F0030508350C2D38BF0C25002DE0
:103F1000064601DBA94204D90C2333600020BDE82A
:103F2000F883DFF8D48000F069F8D8F800301C4638
:103F300044BB29463046FFF7BFFF431C044658D117
:103F4000D8F800402746002F43D1002C4BD02368DF
:103F50003946304604EB030900F05AFC814542D152
:103F600021686D1A29463046FFF7A6FF01303AD086
:103F700023682B442360D8F800305A6862BBC8F825
:103F800000700FE02268521B20D40B2A17D9611948
:103F9000A342256018BF5960636808BFC8F80010C5
:103FA00062514B60304600F02FF804F10B00231DE6
:103FB00020F00700C21A1CBF1B1AA350AFE76268AB
:103FC000A3420CBFC8F800205A60EBE723466468A0
:103FD000AEE73C467F68B6E71A465B68A342FBD172
:103FE00000235360DEE70C233360304600F00CF80A
:103FF00094E70560D6E700BF183400200148FFF7BA
:104000000EBF00BF103400200148FFF709BF00BFFA
:10401000103400209368013B002B10B4936008DA41
:104020009469A34201DB0A2903D15DF8044BFFF731
:10403000E8BD1368581C1060197008465DF8044B01
:104040007047F8B506460F461446D518AC4201D164
:10405000002007E014F8011B3A463046FFF7DAFF6C
:10406000431CF3D1F8BD00002DE9F04F0D469DB083
:1040700014469846064618B1036A0BB9FFF7D8FCF8
:104080006B6ED90705D4AB899A0502D4A86DFFF7EA
:10409000C6FEAB891B0701D52B699BB92946304663
:1040A000FFF7EEFD70B16B6EDC0704D54FF0FF300B
:1040B0001DB0BDE8F08FAB899805F7D4A86DFFF768
:1040C000AFFEF3E70023099320238DF82930CDF8C4
:1040D0000C803023DFF8AC818DF82A304FF00109D5
:1040E00023469A4613F8012B0AB1252AF9D1BAEBD7
:1040F000040B0BD05B46224629463046FFF7A1FF52
:10410000013000F0A780099A5A4409929AF80030C9
:10411000002B00F09F8000234FF0FF32CDE90523F4
:104120000AF1010A049307938DF853301A93544609
:10413000052214F8011B5348FCF74AF8049AD8B931
:10414000D10644BF20238DF85330130744BF2B23DF
:104150008DF853309AF800302A2B15D0079A544620
:1041600000204FF00A0C214611F8013B303B092B8F
:104170004BD9B0B1079214E0A0EB080309FA03F39E
:1041800013430493A246D2E7039B191D1B680391B6
:10419000002BBBBF5B4242F0020207930793B8BFFC
:1041A000049223782E2B0AD163782A2B32D1039BD9
:1041B0001A1D1B68039243EAE37302340593DFF888
:1041C000D4A0217803225046FCF702F838B1049BB2
:1041D000A0EB0A004022824013430134049314F8F8
:1041E000011B29488DF828100622FBF7F1FF002853
:1041F0003FD0264B1BBB039B073323F00703083339
:104200000393099B3B4409936AE70CFB02320C467B
:104210000120A8E700230134059319464FF00A0C4A
:10422000204610F8012B303A092A03D9002BC6D0BA
:104230000591C4E70CFB012104460123F0E703AB21
:1042400000932A46124B04A93046AFF3008007467C
:10425000781CD6D16B6ED90705D4AB899A0502D4E8
:10426000A86DFFF7DDFDAB895B063FF51FAF099831
:104270001EE703AB00932A46054B04A9304600F025
:1042800079F8E4E7E5480008EF480008000000007E
:1042900043400008EB4800082DE9F04716469846D1
:1042A0008A680B69DDF820909342B8BF13463360EB
:1042B00091F8432007460C460AB101333360236866
:1042C000990642BF336802333360256815F006054E
:1042D00006D104F1190AE36832689B1AAB4226DC66
:1042E00094F843302268003B18BF012392062BD478
:1042F00004F1430241463846C84701301ED02368C6
:10430000226903F00603042B02BFE5683368ED1A47
:10431000A3680CBF25EAE57500259342C4BF9B1A2C
:10432000ED1800261A34B5421AD1002008E0012306
:10433000524641463846C847013003D14FF0FF305E
:10434000BDE8F0870135C6E7E1185A1C302081F836
:104350004300224494F8451082F843100233C7E723
:104360000123224641463846C8470130E6D001368F
:10437000D9E700002DE9FF470F7E0C9E782F91466C
:1043800080460C469A4601F1430207D8622F0AD8AC
:10439000002F00F0D180582F00F0B88004F14206C1
:1043A00084F842703AE0A7F16303152BF6D801A117
:1043B00051F823F00D440008214400089D430008F3
:1043C0009D4300089D4300089D43000821440008C8
:1043D0009D4300089D4300089D4300089D4300083D
:1043E0001F4500084B440008D94400089D430008BD
:1043F0009D430008414500089D4300084B440008C8
:104400009D4300089D430008E144000833681A1DDD
:104410001B68326004F1420684F8423001239CE0BC
:1044200033682068191D3160060601D51D6803E058
:104430004506FBD5B3F90050002D03DA2D236D425C
:1044400084F8433058480A2311E02168336808068D
:1044500053F8045B02D4490648BFADB26F2F5248EF
:10446000336014BF0A230823002184F843106668D0
:10447000A660002E05DB21682E4321F00401216097
:104480004BD01646B5FBF3F103FB1157C75D06F899
:10449000017D2F46BB420D46F4D9082B0BD1236872
:1044A000DF0708D5236961689942DEBF302306F82B
:1044B000013C06F1FF36921B2261CDF800A04B466D
:1044C00003AA21464046FFF7E7FE01304AD14FF0EC
:1044D000FF3004B0BDE8F087236843F02003236079
:1044E0003248782784F84570236831681F0651F8F0
:1044F000045B02D45F0648BFADB23160D90744BF48
:1045000043F0200323601DB11023ADE72648E9E7FF
:10451000236823F020032360F6E71646BDE73368DF
:1045200025686169181D30602E061B6801D5196069
:1045300002E06806FBD51980002323611646BCE71C
:1045400033681A1D32601E68626800213046FBF72E
:104550003FFE08B1801B606063682361002384F81C
:104560004330AAE72369324649464046D0470130E6
:10457000ADD023689B0713D4E068039B9842B8BF73
:104580001846A6E70123324649464046D047013047
:104590009DD00135E36803995B1AAB42F2DCEBE78F
:1045A000002504F11906F5E7F64800080749000858
:1045B000B1F90C202DE9F041160705460C4654D4FC
:1045C0004B68002B02DC0B6C002B48DDE66A002EEA
:1045D00045D0002312F480522F68216A2B6030D01E
:1045E000626DA389590705D56368D21A636B0BB155
:1045F000236CD21A0023E66A216A2846B047431C7E
:10460000A38906D129681D292BD82A4ACA40D60772
:1046100027D500226260D9042269226004D5421C99
:1046200001D12B6803B96065616B2F60B9B104F1EA
:104630004403994202D02846FFF7F4FB002363634A
:104640000DE001232846B0470246501CC9D12B6813
:10465000002BC6D01D2B01D0162B1ED12F600020A1
:1046600022E043F040031BB21BE00F69002FF6D09D
:1046700093070E6808BF4B690F6018BF0023A6EBB5
:1046800007088B60B8F1000FE9DD216AA66A43468E
:104690003A462846B047002808DCB4F90C3043F00D
:1046A0004003A3814FF0FF30BDE8F0810744A8EB41
:1046B0000008E7E70100402038B50B6905460C46C5
:1046C00013B90025284638BD18B1036A0BB9FFF7A6
:1046D000AFF9B4F90C30002BF3D0626ED00704D4DC
:1046E000990502D4A06DFFF79AFB28462146FFF7F3
:1046F0005FFF636EDA070546E4D4A3899B05E1D426
:10470000A06DFFF78DFBDDE770B50C46B1F90E101B
:10471000002996B015461E460DDAA38913F0800FC6
:104720004FF0000114BF40234FF48063002031603C
:104730002B6016B070BD6A4600F048F80028ECDB2C
:10474000019901F47041A1F50053594259414FF4C8
:104750008063EBE78B89F7B59D0706460C4607D5C6
:1047600004F14703236023610123636103B0F0BDBB
:1047700001AB6A46FFF7C8FF009F05463946304641
:10478000FFF7BCFB48B9B4F90C309A05EED423F01E
:10479000030343F00203A381E2E7A389206043F00F
:1047A0008003A381019BC4E904075BB1B4F90E1037
:1047B000304600F01DF828B1A38923F0030343F02D
:1047C0000103A381A3891D43A581CFE738B5074D18
:1047D00000230446084611462B60FCF7D2FB431C1D
:1047E00002D12B6803B1236038BD00BF0C34002018
:1047F00038B5064D0023044608462B60FCF7C6FB7F
:10480000431C02D12B6803B1236038BD0C34002057
:1048100038B5064D0023044608462B60FCF7BAFB6A
:10482000431C02D12B6803B1236038BD0C34002037
:1048300008B52DED028BB0EE408A00F017F8B4EE0B
:10484000488AF1EE10FA0CD6DFED078AB4EEE88A5A
:10485000F1EE10FA05D5FFF7B7FA88EEA80A212382
:104860000360BDEC028B08BD00000000B1EEC00A81
:1048700070470000F8B500BFF8BC08BC9E46704702
:0C488000F8B500BFF8BC08BC9E467047AD
:10488C00436F6E6E656374696F6E205375636365F9
:10489C00737366756C21200D004F637420333120C7
:1048AC00323032350043444D3332342D563220668B
:1048BC0077207625642E25642C20636F6D70696CCF
:1048CC0065642025732025730D0A0030393A35367E
:1048DC003A34360025640D0A00232D302B20006855
:1048EC006C4C0065666745464700303132333435D1
:1048FC00363738394142434445460030313233343F
:10490C003536373839616263646566000000000033
:10491C000102030400000000000000000102030477
:10492C0006070809000000000000803F890FC93B02
:10493C00C4FE7F3F900E493C11FB7F3FB6C9963CAD
:10494C00E6F47F3FB00AC93C43EC7F3FB949FB3CDE
:10495C0029E17F3F2CC3163D98D37F3F07E02F3DC5
:10496C008FC37F3F2FFB483D0FB17F3F6814623DE3
:10497C00189C7F3F742B7B3DAB847F3F0A208A3D84
:10498C00C76A7F3F05A9963D6D4E7F3F8C30A33D96
:10499C009D2F7F3F80B6AF3D580E7F3FC33ABC3D45
:1049AC009DEA7E3F36BDC83D6DC47E3FB93DD53DC9
:1049BC00C99B7E3F2EBCE13DB0707E3F7638EE3D0C
:1049CC0023437E3F73B2FA3D24137E3F0295033E90
:1049DC00B1E07D3F86CF093ECCAB7D3FB708103EA2
:1049EC0074747D3F8340163EAC3A7D3FDE761C3EB0
:1049FC0073FE7C3FB6AB223EC9BF7C3FFCDE283E3B
:104A0C00B07E7C3FA2102F3E283B7C3F9840353E29
:104A1C0031F57B3FCF6E3B3ECDAC7B3F379B413E70
:104A2C00FC617B3FC2C5473EBE147B3F60EE4D3EF2
:104A3C0016C57A3F0115543E02737A3F97395A3E98
:104A4C00841E7A3F135C603E9DC7793F667C663E50
:104A5C004E6E793F7F9A6C3E9812793F51B6723EFA
:104A6C007BB4783FCCCF783EF853783FE1E67E3E7E
:104A7C0010F1773FC07D823EC58B773FCE86853E59
:104A8C001724773F938E883E07BA763F07958B3E67
:104A9C00974D763F229A8E3EC6DE753FDD9D913E48
:104AAC00976D753F31A0943E0BFA743F17A1973E5A
:104ABC002284743F86A09A3EDD0B743F789E9D3E07
:104ACC003F91733FE59AA03E4714733FC595A33EB3
:104ADC00F894723F128FA63E5213723FC486A93EC1
:104AEC00578F713FD47CAC3E0809713F3A71AF3E91
:104AFC006680703FEF63B23E73F56F3FEC54B53E8A
:104B0C0030686F3F2A44B83E9ED86E3FA031BB3E02
:104B1C00BE466E3F4A1DBE3E93B26D3F1E07C13E60
:104B2C001D1C6D3F15EFC33E5E836C3F29D5C63E01
:104B3C0058E86B3F53B9C93E0C4B6B3F8B9BCC3E3B
:104B4C007BAB6A3FCA7BCF3EA7096A3F095AD23E6C
:104B5C009165693F4136D53E3CBF683F6B10D83EEE
:104B6C00A816683F80E8DA3ED86B673F79BEDD3E19
:104B7C00CCBE663F4F92E03E880F663FFA63E33E41
:104B8C000B5E653F7533E63E59AA643FB700E93EBC
:104B9C0073F4633FBBCBEB3E5A3C633F7994EE3EE0
:104BAC001082623FEA5AF13E98C5613F071FF43EFE
:104BBC00F206613FCBE0F63E2146603F2DA0F93E68
:104BCC0027835F3F275DFC3E05BE5E3FB217FF3E6D
:104BDC00BEF65D3FE4E7003F532D5D3FB142023F1F
:104BEC00C7615C3F3D9C033F1A945B3F84F4043FD8
:104BFC0050C45A3F824B063F6AF2593F36A1073FD9
:104C0C006A1E593F9BF5083F5348583FAD480A3F31
:104C1C002670573F6B9A0B3FE595563FD0EA0C3FF9
:104C2C0093B9553FDA390E3F31DB543F84870F3F40
:104C3C00C3FA533FCDD3103F4918533FB01E123F18
:104C4C00C633523F2A68133F3D4D513F39B0143F94
:104C5C00AF64503FD9F6153F1F7A4F3F073C173FC3
:104C6C00908D4E3FC07F183F029F4D3F00C2193FB1
:104C7C0079AE4C3FC6021B3FF8BB4B3F0C421C3F6E
:104C8C007FC74A3FD17F1D3F12D1493F12BC1E3F07
:104C9C00B3D8483FCBF61F3F65DE473FF92F213F86
:104CAC002AE2463F9967223F03E4453FA99D233FF3
:104CBC00F5E3443F25D2243F00E2433F0A05263F5B
:104CCC0029DE423F5636273F70D8413F0566283FC4
:104CDC00DAD0403F1594293F67C73F3F82C02A3F37
:104CEC001BBC3E3F4AEB2B3FF9AE3D3F69142D3FB9
:104CFC0003A03C3FDE3B2E3F3B8F3B3FA5612F3F4C
:104D0C00A47C3A3FBB85303F4268393F1DA8313FF8
:104D1C001652383FC9C8323F233A373FBCE7333FBE
:104D2C006C20363FF304353FF304353F6C20363F9F
:104D3C00BCE7333F233A373FC9C8323F1652383F9E
:104D4C001DA8313F4268393FBB85303FA47C3A3FB8
:104D5C00A5612F3F3B8F3B3FDE3B2E3F03A03C3FEB
:104D6C0069142D3FF9AE3D3F4AEB2B3F1BBC3E3F38
:104D7C0082C02A3F67C73F3F1594293FDAD0403F96
:104D8C000566283F70D8413F5636273F29DE423F03
:104D9C000A05263F00E2433F25D2243FF5E3443F7A
:104DAC00A99D233F03E4453F9967223F2AE2463FF2
:104DBC00F92F213F65DE473FCBF61F3FB3D8483F65
:104DCC0012BC1E3F12D1493FD17F1D3F7FC74A3FC6
:104DDC000C421C3FF8BB4B3FC6021B3F79AE4C3F0D
:104DEC0000C2193F029F4D3FC07F183F908D4E3F30
:104DFC00073C173F1F7A4F3FD9F6153FAF64503F22
:104E0C0039B0143F3D4D513F2A68133FC633523FD2
:104E1C00B01E123F4918533FCDD3103FC3FA533F36
:104E2C0084870F3F31DB543FDA390E3F93B9553F3E
:104E3C00D0EA0C3FE595563F6B9A0B3F2670573FD7
:104E4C00AD480A3F5348583F9BF5083F6A1E593FEF
:104E5C0036A1073F6AF2593F824B063F50C45A3F76
:104E6C0084F4043F1A945B3F3D9C033FC7615C3F55
:104E7C00B142023F532D5D3FE4E7003FBEF65D3F7C
:104E8C00B217FF3E05BE5E3F275DFC3E27835F3FAA
:104E9C002DA0F93E2146603FCBE0F63EF206613F85
:104EAC00071FF43E98C5613FEA5AF13E1082623FFB
:104EBC007994EE3E5A3C633FBBCBEB3E73F4633FBD
:104ECC00B700E93E59AA643F7533E63E0B5E653F79
:104EDC00FA63E33E880F663F4F92E03ECCBE663FDE
:104EEC0079BEDD3ED86B673F80E8DA3EA816683F96
:104EFC006B10D83E3CBF683F4136D53E9165693F4B
:104F0C00095AD23EA7096A3FCA7BCF3E7BAB6A3FA8
:104F1C008B9BCC3E0C4B6B3F53B9C93E58E86B3F57
:104F2C0029D5C63E5E836C3F15EFC33E1D1C6D3FFD
:104F3C001E07C13E93B26D3F4A1DBE3EBE466E3F3C
:104F4C00A031BB3E9ED86E3F2A44B83E30686F3FBE
:104F5C00EC54B53E73F56F3FEF63B23E6680703F25
:104F6C003A71AF3E0809713FD47CAC3E578F713F0C
:104F7C00C486A93E5213723F128FA63EF894723F1C
:104F8C00C595A33E4714733FE59AA03E3F91733FEE
:104F9C00789E9D3EDD0B743F86A09A3E2284743F22
:104FAC0017A1973E0BFA743F31A0943E976D753F55
:104FBC00DD9D913EC6DE753F229A8E3E974D763F23
:104FCC0007958B3E07BA763F938E883E1724773F22
:104FDC00CE86853EC58B773FC07D823E10F1773FF4
:104FEC00E1E67E3EF853783FCCCF783E7BB4783FF9
:104FFC0051B6723E9812793F7F9A6C3E4E6E793F55
:10500C00667C663E9DC7793F135C603E841E7A3F8A
:10501C0097395A3E02737A3F0115543E16C57A3FB2
:10502C0060EE4D3EBE147B3FC2C5473EFC617B3FEC
:10503C00379B413ECDAC7B3FCF6E3B3E31F57B3F4A
:10504C009840353E283B7C3FA2102F3EB07E7C3FE3
:10505C00FCDE283EC9BF7C3FB6AB223E73FE7C3FD4
:10506C00DE761C3EAC3A7D3F8340163E74747D3F29
:10507C00B708103ECCAB7D3F86CF093EB1E07D3FFB
:10508C000295033E24137E3F73B2FA3D23437E3FC9
:10509C007638EE3DB0707E3F2EBCE13DC99B7E3F25
:1050AC00B93DD53D6DC47E3F36BDC83D9DEA7E3FC2
:1050BC00C33ABC3D580E7F3F80B6AF3D9D2F7F3F1E
:1050CC008C30A33D6D4E7F3F05A9963DC76A7F3F4F
:1050DC000A208A3DAB847F3F742B7B3D189C7F3F1D
:1050EC006814623D0FB17F3F2FFB483D8FC37F3F5C
:1050FC0007E02F3D98D37F3F2CC3163D29E17F3F1E
:10510C00B949FB3C43EC7F3FB00AC93CE6F47F3F16
:10511C00B6C9963C11FB7F3F900E493CC4FE7F3FC5
:10512C00890FC93B0000803F00000000C4FE7F3F98
:10513C00890FC9BB11FB7F3F900E49BCE6F47F3F42
:10514C00B6C996BC43EC7F3FB00AC9BC29E17F3F8E
:10515C00B949FBBC98D37F3F2CC316BD8FC37F3F8F
:10516C0007E02FBD0FB17F3F2FFB48BD189C7F3F41
:10517C00681462BDAB847F3F742B7BBDC76A7F3FD5
:10518C000A208ABD6D4E7F3F05A996BD9D2F7F3F9E
:10519C008C30A3BD580E7F3F80B6AFBD9DEA7E3FDD
:1051AC00C33ABCBD6DC47E3F36BDC8BDC99B7E3FF6
:1051BC00B93DD5BDB0707E3F2EBCE1BD23437E3FD3
:1051CC007638EEBD24137E3F73B2FABDB1E07D3F5D
:1051DC00029503BECCAB7D3F86CF09BE74747D3F78
:1051EC00B70810BEAC3A7D3F834016BE73FE7C3FC1
:1051FC00DE761CBEC9BF7C3FB6AB22BEB07E7C3F08
:10520C00FCDE28BE283B7C3FA2102FBE31F57B3F35
:10521C00984035BECDAC7B3FCF6E3BBEFC617B3F37
:10522C00379B41BEBE147B3FC2C547BE16C57A3FF5
:10523C0060EE4DBE02737A3F011554BE841E7A3F58
:10524C0097395ABE9DC7793F135C60BE4E6E793F4D
:10525C00667C66BE9812793F7F9A6CBE7BB4783FB1
:10526C0051B672BEF853783FCCCF78BE10F1773F71
:10527C00E1E67EBEC58B773FC07D82BE1724773FAB
:10528C00CE8685BE07BA763F938E88BE974D763F05
:10529C0007958BBEC6DE753F229A8EBE976D753F05
:1052AC00DD9D91BE0BFA743F31A094BE2284743FF5
:1052BC0017A197BEDD0B743F86A09ABE3F91733F3A
:1052CC00789E9DBE4714733FE59AA0BEF894723F3A
:1052DC00C595A3BE5213723F128FA6BE578F713F56
:1052EC00C486A9BE0809713FD47CACBE6680703FF1
:1052FC003A71AFBE73F56F3FEF63B2BE30686F3F6C
:10530C00EC54B5BE9ED86E3F2A44B8BEBE466E3F26
:10531C00A031BBBE93B26D3F4A1DBEBE1D1C6D3F7E
:10532C001E07C1BE5E836C3F15EFC3BE58E86B3FD2
:10533C0029D5C6BE0C4B6B3F53B9C9BE7BAB6A3F7C
:10534C008B9BCCBEA7096A3FCA7BCFBE9165693FD8
:10535C00095AD2BE3CBF683F4136D5BEA816683F3D
:10536C006B10D8BED86B673F80E8DABECCBE663F08
:10537C0079BEDDBE880F663F4F92E0BE0B5E653F87
:10538C00FA63E3BE59AA643F7533E6BE73F4633F18
:10539C00B700E9BE5A3C633FBBCBEBBE1082623F09
:1053AC007994EEBE98C5613FEA5AF1BEF206613FB0
:1053BC00071FF4BE2146603FCBE0F6BE27835F3F5C
:1053CC002DA0F9BE05BE5E3F275DFCBEBEF65D3F5F
:1053DC00B217FFBE532D5D3FE4E700BFC7615C3FD2
:1053EC00B14202BF1A945B3F3D9C03BF50C45A3F6D
:1053FC0084F404BF6AF2593F824B06BF6A1E593FC0
:10540C0036A107BF5348583F9BF508BF2670573F3E
:10541C00AD480ABFE595563F6B9A0BBF93B9553F04
:10542C00D0EA0CBF31DB543FDA390EBFC3FA533F1D
:10543C0084870FBF4918533FCDD310BFC633523F9B
:10544C00B01E12BF3D4D513F2A6813BFAF64503F91
:10545C0039B014BF1F7A4F3FD9F615BF908D4E3F10
:10546C00073C17BF029F4D3FC07F18BF79AE4C3F22
:10547C0000C219BFF8BB4B3FC6021BBF7FC74A3FD8
:10548C000C421CBF12D1493FD17F1DBFB3D8483F3E
:10549C0012BC1EBF65DE473FCBF61FBF2AE2463F5C
:1054AC00F92F21BF03E4453F996722BFF5E3443F41
:1054BC00A99D23BF00E2433F25D224BF29DE423FF2
:1054CC000A0526BF70D8413F563627BFDAD0403F79
:1054DC00056628BF67C73F3F159429BF1BBC3E3FDD
:1054EC0082C02ABFF9AE3D3F4AEB2BBF03A03C3F25
:1054FC0069142DBF3B8F3B3FDE3B2EBFA47C3A3F54
:10550C00A5612FBF4268393FBB8530BF1652383F6B
:10551C001DA831BF233A373FC9C832BF6C20363F74
:10552C00BCE733BFF304353FF30435BFBCE7333F6F
:10553C006C2036BFC9C8323F233A37BF1DA8313F54
:10554C00165238BFBB85303F426839BFA5612F3F2B
:10555C00A47C3ABFDE3B2E3F3B8F3BBF69142D3FF3
:10556C0003A03CBF4AEB2B3FF9AE3DBF82C02A3FA4
:10557C001BBC3EBF1594293F67C73FBF0566283F3C
:10558C00DAD040BF5636273F70D841BF0A05263FB8
:10559C0029DE42BF25D2243F00E243BFA99D233F11
:1055AC00F5E344BF9967223F03E445BFF92F213F40
:1055BC002AE246BFCBF61F3F65DE47BF12BC1E3F3B
:1055CC00B3D848BFD17F1D3F12D149BF0C421C3FFD
:1055DC007FC74ABFC6021B3FF8BB4BBF00C2193F77
:1055EC0079AE4CBFC07F183F029F4DBF073C173FA1
:1055FC00908D4EBFD9F6153F1F7A4FBF39B0143F6F
:10560C00AF6450BF2A68133F3D4D51BFB01E123FCF
:10561C00C63352BFCDD3103F491853BF84870F3FB9
:10562C00C3FA53BFDA390E3F31DB54BFD0EA0C3F1B
:10563C0093B955BF6B9A0B3FE59556BFAD480A3FE2
:10564C00267057BF9BF5083F534858BF36A1073FFC
:10565C006A1E59BF824B063F6AF259BF84F4043F5D
:10566C0050C45ABF3D9C033F1A945BBFB142023FEA
:10567C00C7615CBFE4E7003F532D5DBFB217FF3E2F
:10568C00BEF65DBF275DFC3E05BE5EBF2DA0F93E9C
:10569C0027835FBFCBE0F63E214660BF071FF43E79
:1056AC00F20661BFEA5AF13E98C561BF7994EE3EAD
:1056BC00108262BFBBCBEB3E5A3C63BFB700E93EE6
:1056CC0073F463BF7533E63E59AA64BFFA63E33ED5
:1056DC000B5E65BF4F92E03E880F66BF79BEDD3E24
:1056EC00CCBE66BF80E8DA3ED86B67BF6B10D83E85
:1056FC00A81668BF4136D53E3CBF68BF095AD23E9A
:10570C00916569BFCA7BCF3EA7096ABF8B9BCC3E14
:10571C007BAB6ABF53B9C93E0C4B6BBF29D5C63E98
:10572C0058E86BBF15EFC33E5E836CBF1E07C13ECE
:10573C001D1C6DBF4A1DBE3E93B26DBFA031BB3E5A
:10574C00BE466EBF2A44B83E9ED86EBFEC54B53EE2
:10575C0030686FBFEF63B23E73F56FBF3A71AF3E07
:10576C00668070BFD47CAC3E080971BFC486A93E6C
:10577C00578F71BF128FA63E521372BFC595A33EB1
:10578C00F89472BFE59AA03E471473BF789E9D3E75
:10579C003F9173BF86A09A3EDD0B74BF17A1973E55
:1057AC00228474BF31A0943E0BFA74BFDD9D913EF0
:1057BC00976D75BF229A8E3EC6DE75BF07958B3EE0
:1057CC00974D76BF938E883E07BA76BFCE86853EC0
:1057DC00172477BFC07D823EC58B77BFE1E67E3E46
:1057EC0010F177BFCCCF783EF85378BF51B6723EEC
:1057FC007BB478BF7F9A6C3E981279BF667C663E0C
:10580C004E6E79BF135C603E9DC779BF97395A3E87
:10581C00841E7ABF0115543E02737ABF60EE4D3E72
:10582C0016C57ABFC2C5473EBE147BBF379B413EEF
:10583C00FC617BBFCF6E3B3ECDAC7BBF9840353E11
:10584C0031F57BBFA2102F3E283B7CBFFCDE283EEF
:10585C00B07E7CBFB6AB223EC9BF7CBFDE761C3EA1
:10586C0073FE7CBF8340163EAC3A7DBFB708103E3A
:10587C0074747DBF86CF093ECCAB7DBF0295033ED1
:10588C00B1E07DBF73B2FA3D24137EBF7638EE3D96
:10589C0023437EBF2EBCE13DB0707EBFB93DD53DEC
:1058AC00C99B7EBF36BDC83D6DC47EBFC33ABC3DEF
:1058BC009DEA7EBF80B6AF3D580E7FBF8C30A33DB6
:1058CC009D2F7FBF05A9963D6D4E7FBF0A208A3D57
:1058DC00C76A7FBF742B7B3DAB847FBF6814623D6E
:1058EC00189C7FBF2FFB483D0FB17FBF07E02F3DBA
:1058FC008FC37FBF2CC3163D98D37FBFB949FB3CE8
:10590C0029E17FBFB00AC93C43EC7FBFB6C9963CC6
:10591C00E6F47FBF900E493C11FB7FBF890FC93B5A
:10592C00C4FE7FBF0800000210000004180000062F
:10593C00200000082800000A3000000C3800000E7F
:10594C0048004002500040045800400660004008E7
:10595C006800400A7000400C7800400E88008002FD
:10596C009000800498008006A0008008A800800A9F
:10597C00B000800CB800800EC800C002D000C0047B
:10598C00D800C006E000C008E800C00AF000C00C57
:10599C00F800C00E080100031001000518010007F3
:1059AC00200100092801000B3001000D3801000F07
:1059BC00480140035001400558014007600140096F
:1059CC006801400B7001400D7801400F8801800385
:1059DC009001800598018007A0018009A801800B27
:1059EC00B001800DB801800FC801C003D001C00503
:1059FC00D801C007E001C009E801C00BF001C00DDF
:105A0C00F801C00F1002080418020806200208084A
:105A1C002802080A3002080C3802080E500248040A
:105A2C0058024806600248086802480A7002480C8E
:105A3C007802480E9002880498028806A002880812
:105A4C00A802880AB002880CB802880ED002C804DA
:105A5C00D802C806E002C808E802C80AF002C80C5E
:105A6C00F802C80E100308051803080720030809DC
:105A7C002803080B3003080D3803080F50034805A2
:105A8C0058034807600348096803480B7003480D26
:105A9C007803480F9003880598038807A0038809AA
:105AAC00A803880BB003880DB803880FD003C80572
:105ABC00D803C807E003C809E803C80BF003C80DF6
:105ACC00F803C80F18041006200410082804100A44
